{
  "_format": "hh-sol-artifact-1",
  "contractName": "CCOFPublicsale",
  "sourceName": "contracts/Crowdsale/CCOFPublicsale.sol",
  "abi": [
    {
      "inputs": [
        {
          "internalType": "address",
          "name": "_inventory",
          "type": "address"
        },
        {
          "internalType": "uint256",
          "name": "_cap",
          "type": "uint256"
        },
        {
          "internalType": "uint256",
          "name": "_openingTime",
          "type": "uint256"
        },
        {
          "internalType": "uint256",
          "name": "_closingTime",
          "type": "uint256"
        },
        {
          "internalType": "uint256",
          "name": "_price",
          "type": "uint256"
        },
        {
          "internalType": "address payable",
          "name": "_treasury",
          "type": "address"
        }
      ],
      "stateMutability": "nonpayable",
      "type": "constructor"
    },
    {
      "anonymous": false,
      "inputs": [
        {
          "indexed": true,
          "internalType": "address",
          "name": "previousOwner",
          "type": "address"
        },
        {
          "indexed": true,
          "internalType": "address",
          "name": "newOwner",
          "type": "address"
        }
      ],
      "name": "OwnershipTransferred",
      "type": "event"
    },
    {
      "anonymous": false,
      "inputs": [
        {
          "indexed": false,
          "internalType": "address",
          "name": "account",
          "type": "address"
        }
      ],
      "name": "Paused",
      "type": "event"
    },
    {
      "anonymous": false,
      "inputs": [
        {
          "indexed": true,
          "internalType": "address",
          "name": "buyer",
          "type": "address"
        },
        {
          "indexed": false,
          "internalType": "uint256",
          "name": "value",
          "type": "uint256"
        },
        {
          "indexed": false,
          "internalType": "uint256",
          "name": "tokenAmount",
          "type": "uint256"
        }
      ],
      "name": "TokenPurchase",
      "type": "event"
    },
    {
      "anonymous": false,
      "inputs": [
        {
          "indexed": false,
          "internalType": "address",
          "name": "account",
          "type": "address"
        }
      ],
      "name": "Unpaused",
      "type": "event"
    },
    {
      "stateMutability": "payable",
      "type": "fallback"
    },
    {
      "inputs": [],
      "name": "buyTokens",
      "outputs": [],
      "stateMutability": "payable",
      "type": "function"
    },
    {
      "inputs": [],
      "name": "cap",
      "outputs": [
        {
          "internalType": "uint256",
          "name": "",
          "type": "uint256"
        }
      ],
      "stateMutability": "view",
      "type": "function"
    },
    {
      "inputs": [],
      "name": "capReached",
      "outputs": [
        {
          "internalType": "bool",
          "name": "",
          "type": "bool"
        }
      ],
      "stateMutability": "view",
      "type": "function"
    },
    {
      "inputs": [],
      "name": "closingTime",
      "outputs": [
        {
          "internalType": "uint256",
          "name": "",
          "type": "uint256"
        }
      ],
      "stateMutability": "view",
      "type": "function"
    },
    {
      "inputs": [],
      "name": "crowdsaleHasClosed",
      "outputs": [
        {
          "internalType": "bool",
          "name": "",
          "type": "bool"
        }
      ],
      "stateMutability": "view",
      "type": "function"
    },
    {
      "inputs": [],
      "name": "inventory",
      "outputs": [
        {
          "internalType": "contract CCOFInventory",
          "name": "",
          "type": "address"
        }
      ],
      "stateMutability": "view",
      "type": "function"
    },
    {
      "inputs": [],
      "name": "openingTime",
      "outputs": [
        {
          "internalType": "uint256",
          "name": "",
          "type": "uint256"
        }
      ],
      "stateMutability": "view",
      "type": "function"
    },
    {
      "inputs": [],
      "name": "owner",
      "outputs": [
        {
          "internalType": "address",
          "name": "",
          "type": "address"
        }
      ],
      "stateMutability": "view",
      "type": "function"
    },
    {
      "inputs": [],
      "name": "pause",
      "outputs": [],
      "stateMutability": "nonpayable",
      "type": "function"
    },
    {
      "inputs": [],
      "name": "paused",
      "outputs": [
        {
          "internalType": "bool",
          "name": "",
          "type": "bool"
        }
      ],
      "stateMutability": "view",
      "type": "function"
    },
    {
      "inputs": [],
      "name": "price",
      "outputs": [
        {
          "internalType": "uint256",
          "name": "",
          "type": "uint256"
        }
      ],
      "stateMutability": "view",
      "type": "function"
    },
    {
      "inputs": [],
      "name": "renounceOwnership",
      "outputs": [],
      "stateMutability": "nonpayable",
      "type": "function"
    },
    {
      "inputs": [
        {
          "internalType": "uint256",
          "name": "_tokenAmount",
          "type": "uint256"
        }
      ],
      "name": "reserveTokens",
      "outputs": [],
      "stateMutability": "nonpayable",
      "type": "function"
    },
    {
      "inputs": [
        {
          "internalType": "uint256",
          "name": "_cap",
          "type": "uint256"
        }
      ],
      "name": "setCap",
      "outputs": [],
      "stateMutability": "nonpayable",
      "type": "function"
    },
    {
      "inputs": [
        {
          "internalType": "uint256",
          "name": "_closingTime",
          "type": "uint256"
        }
      ],
      "name": "setClosingTime",
      "outputs": [],
      "stateMutability": "nonpayable",
      "type": "function"
    },
    {
      "inputs": [
        {
          "internalType": "uint256",
          "name": "_openingTime",
          "type": "uint256"
        }
      ],
      "name": "setOpeningTime",
      "outputs": [],
      "stateMutability": "nonpayable",
      "type": "function"
    },
    {
      "inputs": [
        {
          "internalType": "uint256",
          "name": "_price",
          "type": "uint256"
        }
      ],
      "name": "setPrice",
      "outputs": [],
      "stateMutability": "nonpayable",
      "type": "function"
    },
    {
      "inputs": [],
      "name": "tokenSold",
      "outputs": [
        {
          "internalType": "uint256",
          "name": "",
          "type": "uint256"
        }
      ],
      "stateMutability": "view",
      "type": "function"
    },
    {
      "inputs": [
        {
          "internalType": "address",
          "name": "newOwner",
          "type": "address"
        }
      ],
      "name": "transferOwnership",
      "outputs": [],
      "stateMutability": "nonpayable",
      "type": "function"
    },
    {
      "inputs": [],
      "name": "txTokenLimit",
      "outputs": [
        {
          "internalType": "uint256",
          "name": "",
          "type": "uint256"
        }
      ],
      "stateMutability": "view",
      "type": "function"
    },
    {
      "inputs": [],
      "name": "unpause",
      "outputs": [],
      "stateMutability": "nonpayable",
      "type": "function"
    },
    {
      "inputs": [],
      "name": "weiRaised",
      "outputs": [
        {
          "internalType": "uint256",
          "name": "",
          "type": "uint256"
        }
      ],
      "stateMutability": "view",
      "type": "function"
    },
    {
      "stateMutability": "payable",
      "type": "receive"
    }
  ],
  "bytecode": "0x608060405260026008553480156200001657600080fd5b5060405162001aff38038062001aff83398181016040528101906200003c919062000295565b8484848484600073ffffffffffffffffffffffffffffffffffffffff168173ffffffffffffffffffffffffffffffffffffffff1614156200007c57600080fd5b80600360006101000a81548173ffffffffffffffffffffffffffffffffffffffff021916908373ffffffffffffffffffffffffffffffffffffffff16021790555081600281905550505081811015620000d457600080fd5b8160048190555080600581905550505060008111620000f257600080fd5b80600681905550506200011a6200010e6200018260201b60201c565b6200018a60201b60201c565b6000600760146101000a81548160ff02191690831515021790555085600960006101000a81548173ffffffffffffffffffffffffffffffffffffffff021916908373ffffffffffffffffffffffffffffffffffffffff160217905550505050505050620003d6565b600033905090565b6000600760009054906101000a900473ffffffffffffffffffffffffffffffffffffffff16905081600760006101000a81548173ffffffffffffffffffffffffffffffffffffffff021916908373ffffffffffffffffffffffffffffffffffffffff1602179055508173ffffffffffffffffffffffffffffffffffffffff168173ffffffffffffffffffffffffffffffffffffffff167f8be0079c531659141344cd1fd0a4f28419497f9722a3daafe3b4186f6b6457e060405160405180910390a35050565b600081519050620002618162000388565b92915050565b6000815190506200027881620003a2565b92915050565b6000815190506200028f81620003bc565b92915050565b60008060008060008060c08789031215620002b557620002b462000383565b5b6000620002c589828a0162000250565b9650506020620002d889828a016200027e565b9550506040620002eb89828a016200027e565b9450506060620002fe89828a016200027e565b93505060806200031189828a016200027e565b92505060a06200032489828a0162000267565b9150509295509295509295565b60006200033e8262000359565b9050919050565b6000620003528262000359565b9050919050565b600073ffffffffffffffffffffffffffffffffffffffff82169050919050565b6000819050919050565b600080fd5b620003938162000331565b81146200039f57600080fd5b50565b620003ad8162000345565b8114620003b957600080fd5b50565b620003c78162000379565b8114620003d357600080fd5b50565b61171980620003e66000396000f3fe6080604052600436106101395760003560e01c80638456cb59116100ab578063abdd11a81161006f578063abdd11a8146103b6578063b7a8807c146103df578063d031370b1461040a578063d0febe4c14610433578063d44943f31461043d578063f2fde38b1461046857610143565b80638456cb59146102f55780638da5cb5b1461030c5780638df25efa1461033757806391b7f5ed14610362578063a035b1fe1461038b57610143565b80634b6753bc116100fd5780634b6753bc146102095780634b89c41d146102345780634f9359451461025d578063519ee19e146102885780635c975abb146102b3578063715018a6146102de57610143565b806315d52a5c14610148578063355274ea146101735780633f4ba83a1461019e5780634042b66f146101b557806347786d37146101e057610143565b3661014357600080fd5b600080fd5b34801561015457600080fd5b5061015d610491565b60405161016a91906110c8565b60405180910390f35b34801561017f57600080fd5b506101886104b7565b604051610195919061124c565b60405180910390f35b3480156101aa57600080fd5b506101b36104bd565b005b3480156101c157600080fd5b506101ca6104cf565b6040516101d7919061124c565b60405180910390f35b3480156101ec57600080fd5b5061020760048036038101906102029190610e93565b6104d5565b005b34801561021557600080fd5b5061021e6104f4565b60405161022b919061124c565b60405180910390f35b34801561024057600080fd5b5061025b60048036038101906102569190610e93565b6104fa565b005b34801561026957600080fd5b5061027261050c565b60405161027f91906110ad565b60405180910390f35b34801561029457600080fd5b5061029d61051b565b6040516102aa919061124c565b60405180910390f35b3480156102bf57600080fd5b506102c8610521565b6040516102d591906110ad565b60405180910390f35b3480156102ea57600080fd5b506102f3610538565b005b34801561030157600080fd5b5061030a61054c565b005b34801561031857600080fd5b5061032161055e565b60405161032e9190611069565b60405180910390f35b34801561034357600080fd5b5061034c610588565b604051610359919061124c565b60405180910390f35b34801561036e57600080fd5b5061038960048036038101906103849190610e93565b61058e565b005b34801561039757600080fd5b506103a06105a0565b6040516103ad919061124c565b60405180910390f35b3480156103c257600080fd5b506103dd60048036038101906103d89190610e93565b6105a6565b005b3480156103eb57600080fd5b506103f46105b8565b604051610401919061124c565b60405180910390f35b34801561041657600080fd5b50610431600480360381019061042c9190610e93565b6105be565b005b61043b610630565b005b34801561044957600080fd5b506104526106f0565b60405161045f91906110ad565b60405180910390f35b34801561047457600080fd5b5061048f600480360381019061048a9190610e66565b6106fc565b005b600960009054906101000a900473ffffffffffffffffffffffffffffffffffffffff1681565b60065481565b6104c5610780565b6104cd6107fe565b565b60005481565b6104dd610780565b600081116104ea57600080fd5b8060068190555050565b60055481565b610502610780565b8060058190555050565b60006006546001541015905090565b60015481565b6000600760149054906101000a900460ff16905090565b610540610780565b61054a6000610861565b565b610554610780565b61055c610927565b565b6000600760009054906101000a900473ffffffffffffffffffffffffffffffffffffffff16905090565b60085481565b610596610780565b8060028190555050565b60025481565b6105ae610780565b8060048190555050565b60045481565b6105c6610780565b6105d23382600061098a565b6105dc338261099a565b3373ffffffffffffffffffffffffffffffffffffffff167fcd60aa75dea3072fbc07ae6d7d856b5dc5f4eee88854f5b4abf7b680ef8bc50f6000836040516106259291906110e3565b60405180910390a250565b60003390506000349050600061064983836002546109a8565b90506106558382610a03565b6000600254826106659190611328565b905061067284838361098a565b61067c848361099a565b3373ffffffffffffffffffffffffffffffffffffffff167fcd60aa75dea3072fbc07ae6d7d856b5dc5f4eee88854f5b4abf7b680ef8bc50f82846040516106c4929190611267565b60405180910390a26106d581610a5e565b6106ea3382856106e59190611382565b610aca565b50505050565b60006005544211905090565b610704610780565b600073ffffffffffffffffffffffffffffffffffffffff168173ffffffffffffffffffffffffffffffffffffffff161415610774576040517f08c379a000000000000000000000000000000000000000000000000000000000815260040161076b9061112c565b60405180910390fd5b61077d81610861565b50565b610788610b1f565b73ffffffffffffffffffffffffffffffffffffffff166107a661055e565b73ffffffffffffffffffffffffffffffffffffffff16146107fc576040517f08c379a00000000000000000000000000000000000000000000000000000000081526004016107f3906111cc565b60405180910390fd5b565b610806610b27565b6000600760146101000a81548160ff0219169083151502179055507f5db9ee0a495bf2e6ff9c91a7834c1ba4fdd244a5e8aa4e537bd38aeae4b073aa61084a610b1f565b6040516108579190611069565b60405180910390a1565b6000600760009054906101000a900473ffffffffffffffffffffffffffffffffffffffff16905081600760006101000a81548173ffffffffffffffffffffffffffffffffffffffff021916908373ffffffffffffffffffffffffffffffffffffffff1602179055508173ffffffffffffffffffffffffffffffffffffffff168173ffffffffffffffffffffffffffffffffffffffff167f8be0079c531659141344cd1fd0a4f28419497f9722a3daafe3b4186f6b6457e060405160405180910390a35050565b61092f610b70565b6001600760146101000a81548160ff0219169083151502179055507f62e78cea01bee320cd4e420270b5ea74000d11b0c9f74754ebdbfc544b05a258610973610b1f565b6040516109809190611069565b60405180910390a1565b610995838383610bba565b505050565b6109a48282610be7565b5050565b6000806109b6858585610c7a565b9050600654816001546109c991906112a1565b11156109e2576001546006546109df9190611382565b90505b6008548111156109f7576008549150506109fc565b809150505b9392505050565b610a0b610b70565b600854811115610a50576040517f08c379a0000000000000000000000000000000000000000000000000000000008152600401610a479061120c565b60405180910390fd5b610a5a8282610c96565b5050565b600360009054906101000a900473ffffffffffffffffffffffffffffffffffffffff1673ffffffffffffffffffffffffffffffffffffffff166108fc829081150290604051600060405180830381858888f19350505050158015610ac6573d6000803e3d6000fd5b5050565b6000811115610b1b578173ffffffffffffffffffffffffffffffffffffffff166108fc829081150290604051600060405180830381858888f19350505050158015610b19573d6000803e3d6000fd5b505b5050565b600033905090565b610b2f610521565b610b6e576040517f08c379a0000000000000000000000000000000000000000000000000000000008152600401610b659061110c565b60405180910390fd5b565b610b78610521565b15610bb8576040517f08c379a0000000000000000000000000000000000000000000000000000000008152600401610baf9061118c565b60405180910390fd5b565b80600054610bc891906112a1565b60008190555081600154610bdc91906112a1565b600181905550505050565b600960009054906101000a900473ffffffffffffffffffffffffffffffffffffffff1673ffffffffffffffffffffffffffffffffffffffff166340c10f1983836040518363ffffffff1660e01b8152600401610c44929190611084565b600060405180830381600087803b158015610c5e57600080fd5b505af1158015610c72573d6000803e3d6000fd5b505050505050565b6000808284610c8991906112f7565b9050809150509392505050565b610c9e61050c565b15610cde576040517f08c379a0000000000000000000000000000000000000000000000000000000008152600401610cd59061114c565b60405180910390fd5b610ce88282610cec565b5050565b600454421015610d31576040517f08c379a0000000000000000000000000000000000000000000000000000000008152600401610d28906111ec565b60405180910390fd5b600554421115610d76576040517f08c379a0000000000000000000000000000000000000000000000000000000008152600401610d6d9061122c565b60405180910390fd5b610d808282610d84565b5050565b600073ffffffffffffffffffffffffffffffffffffffff168273ffffffffffffffffffffffffffffffffffffffff161415610df4576040517f08c379a0000000000000000000000000000000000000000000000000000000008152600401610deb9061116c565b60405180910390fd5b6001811015610e38576040517f08c379a0000000000000000000000000000000000000000000000000000000008152600401610e2f906111ac565b60405180910390fd5b5050565b600081359050610e4b816116b5565b92915050565b600081359050610e60816116cc565b92915050565b600060208284031215610e7c57610e7b6114a4565b5b6000610e8a84828501610e3c565b91505092915050565b600060208284031215610ea957610ea86114a4565b5b6000610eb784828501610e51565b91505092915050565b610ec9816113b6565b82525050565b610ed8816113c8565b82525050565b610ee7816113fe565b82525050565b610ef681611410565b82525050565b6000610f09601483611290565b9150610f14826114a9565b602082019050919050565b6000610f2c602683611290565b9150610f37826114d2565b604082019050919050565b6000610f4f602083611290565b9150610f5a82611521565b602082019050919050565b6000610f72601383611290565b9150610f7d8261154a565b602082019050919050565b6000610f95601083611290565b9150610fa082611573565b602082019050919050565b6000610fb8601883611290565b9150610fc38261159c565b602082019050919050565b6000610fdb602083611290565b9150610fe6826115c5565b602082019050919050565b6000610ffe602383611290565b9150611009826115ee565b604082019050919050565b6000611021602483611290565b915061102c8261163d565b604082019050919050565b6000611044601583611290565b915061104f8261168c565b602082019050919050565b611063816113f4565b82525050565b600060208201905061107e6000830184610ec0565b92915050565b60006040820190506110996000830185610ec0565b6110a6602083018461105a565b9392505050565b60006020820190506110c26000830184610ecf565b92915050565b60006020820190506110dd6000830184610ede565b92915050565b60006040820190506110f86000830185610eed565b611105602083018461105a565b9392505050565b6000602082019050818103600083015261112581610efc565b9050919050565b6000602082019050818103600083015261114581610f1f565b9050919050565b6000602082019050818103600083015261116581610f42565b9050919050565b6000602082019050818103600083015261118581610f65565b9050919050565b600060208201905081810360008301526111a581610f88565b9050919050565b600060208201905081810360008301526111c581610fab565b9050919050565b600060208201905081810360008301526111e581610fce565b9050919050565b6000602082019050818103600083015261120581610ff1565b9050919050565b6000602082019050818103600083015261122581611014565b9050919050565b6000602082019050818103600083015261124581611037565b9050919050565b6000602082019050611261600083018461105a565b92915050565b600060408201905061127c600083018561105a565b611289602083018461105a565b9392505050565b600082825260208201905092915050565b60006112ac826113f4565b91506112b7836113f4565b9250827fffffffffffffffffffffffffffffffffffffffffffffffffffffffffffffffff038211156112ec576112eb611446565b5b828201905092915050565b6000611302826113f4565b915061130d836113f4565b92508261131d5761131c611475565b5b828204905092915050565b6000611333826113f4565b915061133e836113f4565b9250817fffffffffffffffffffffffffffffffffffffffffffffffffffffffffffffffff048311821515161561137757611376611446565b5b828202905092915050565b600061138d826113f4565b9150611398836113f4565b9250828210156113ab576113aa611446565b5b828203905092915050565b60006113c1826113d4565b9050919050565b60008115159050919050565b600073ffffffffffffffffffffffffffffffffffffffff82169050919050565b6000819050919050565b600061140982611422565b9050919050565b600061141b826113f4565b9050919050565b600061142d82611434565b9050919050565b600061143f826113d4565b9050919050565b7f4e487b7100000000000000000000000000000000000000000000000000000000600052601160045260246000fd5b7f4e487b7100000000000000000000000000000000000000000000000000000000600052601260045260246000fd5b600080fd5b7f5061757361626c653a206e6f7420706175736564000000000000000000000000600082015250565b7f4f776e61626c653a206e6577206f776e657220697320746865207a65726f206160008201527f6464726573730000000000000000000000000000000000000000000000000000602082015250565b7f4552524f523a43617020526561636865642043726f776473616c65204f766572600082015250565b7f4552524f523a205a65726f204164647265737300000000000000000000000000600082015250565b7f5061757361626c653a2070617573656400000000000000000000000000000000600082015250565b7f4552524f523a20546f6b656e20416d6f756e74205a65726f0000000000000000600082015250565b7f4f776e61626c653a2063616c6c6572206973206e6f7420746865206f776e6572600082015250565b7f4552524f523a2043726f776473616c65206861736e277420737461727465642060008201527f7965740000000000000000000000000000000000000000000000000000000000602082015250565b7f4552524f523a4d61782032206d696e747320696e206f6e65207472616e73616360008201527f74696f6e00000000000000000000000000000000000000000000000000000000602082015250565b7f4552524f523a2043726f776473616c65204f7665720000000000000000000000600082015250565b6116be816113b6565b81146116c957600080fd5b50565b6116d5816113f4565b81146116e057600080fd5b5056fea26469706673582212209f2014ebbe823c62e56b0863a3423430d286465820997c470e43d2615e95fb0064736f6c63430008070033",
  "linkReferences": {},
  "deployedLinkReferences": {}
}